:020000040800F2
:1000000000280020DD0100082D0200082D02000854
:100010002D0200082D0200082D020008000000003B
:100020000000000000000000000000002D02000899
:100030002D020008000000002D0200082D0200081B
:100040002D0200082D0200082D0200082D020008D4
:100050002D0200082D0200082D0200082D020008C4
:100060002D0200082D0200082D0200082D020008B4
:100070002D0200082D0200082D0200082D020008A4
:100080002D0200082D0200082D0200082D02000894
:100090002D0200082D0200082D0200082D02000884
:1000A0002D0200082D0200082D0200082D02000874
:1000B0002D0200082D0200082D0200082D02000864
:1000C0002D0200082D0200082D0200082D02000854
:1000D0002D0200082D0200082D0200082D02000844
:1000E0002D0200082D020008000000002D0200086B
:1000F0002D0200082D0200082D0200082D02000824
:100100002D0200082D0200082D0200082D02000813
:100110002D0200082D0200082D0200082D02000803
:100120002D0200082D0200082D0200082D020008F3
:1001300010B5054C237833B9044B13B10448AFF321
:1001400000800123237010BD00000020000000008B
:100150006804000808B5034B1BB103490348AFF31B
:10016000008008BD000000000400002068040008B2
:1001700080B400AF074B9B69064A43F004039361C8
:10018000044B9B69034A43F00803936100BFBD46DB
:1001900080BC70470010024080B582B000AF0623DB
:1001A000BB710223BB800123FB713B1D1946034831
:1001B00000F09FF800BF0837BD4680BD000C01402D
:1001C00080B500AFFFF7D4FFFFF7E6FF0122022161
:1001D000014800F00DF9F9E7000C01400D48854693
:1001E000AFF300800C480D490D4A002302E0D458BB
:1001F000C4500433C4188C42F9D30A4A0A4C002371
:1002000001E013600432A242FBD300F009F9FFF7CA
:10021000D7FFFEE70028002000000020000000209B
:1002200088040008000000201C000020FEE780B4C5
:1002300083B000AF0346FB80FB88802B42D0802B2D
:1002400011DC082B36D0082B06DC022B2ED0042B19
:100250002ED0012B28D047E0202B2FD0402B2FD0A1
:10026000102B29D040E0B3F5006F33D0B3F5006F09
:1002700009DCB3F5007F29D0B3F5806F28D0B3F542
:10028000807F21D030E0B3F5005F27D0B3F5005F69
:1002900003DCB3F5805F1FD026E0B3F5804F1FD09D
:1002A000B3F5004F1ED01FE000231DE004231BE028
:1002B000082319E00C2317E0102315E0142313E0A2
:1002C000182311E01C230FE000230DE004230BE0B2
:1002D000082309E00C2307E0102305E0142303E0C2
:1002E000182301E01C23FFE718460C37BD4680BCED
:1002F000704790B585B000AF786039600023BB606F
:100300000023FB733B681B88FF2B01D87B6801E04F
:100310007B680433BB603B681B881846FFF787FF88
:1003200003461A460F239340DA43BB681B681A4002
:10033000BB681A603B689B78072B0BD03B689B78A7
:10034000062B07D03B689B78052B03D03B689B7836
:10035000042B0ED13B689B78043B9B005AB23B6850
:10036000DB785BB213435BB2DBB203F00F03FB73CA
:100370002CE03B689B78002B03D03B689B78012BDB
:1003800007D13B689B789B00DBB203F00F03FB7344
:100390001CE03B689B78082B02D10423FB7315E01B
:1003A0000C23FB733B689B78022B07D17B68DB68CF
:1003B0003A6812881A437B68DA6007E07B68DB687A
:1003C0003A681288D2431A407B68DA60FC7B3B684B
:1003D0001B881846FFF72BFF034604FA03F2BB689D
:1003E0001B681A43BB681A6000BF1437BD4690BD36
:1003F00080B483B000AF78600B467B8013467B707F
:100400007B78002B03D07A887B681A6102E07A88B7
:100410007B685A6100BF0C37BD4680BC7047000046
:1004200070B500250C4E0D4CA41BA410A54209D19B
:1004300000F01AF800250A4E0A4CA41BA410A5428D
:1004400005D170BD56F8253098470135EEE756F8CE
:10045000253098470135F2E7800400088004000841
:100460008004000884040008F8B500BFF8BC08BC8C
:100470009E467047F8B500BFF8BC08BC9E46704762
:04048000550100081A
:04048400310100083A
:04000005080001DD11
:00000001FF
