:020000040800F2
:100000000000012001030008A1020008AD02000861
:10001000B3020008B9020008BF0200080000000097
:10002000000000000000000000000000C502000801
:10003000D102000800000000DD020008E90200080B
:100040004903000849030008490300084903000860
:100050004903000849030008490300084903000850
:100060004903000849030008490300084903000840
:100070004903000849030008490300084903000830
:100080004903000849030008490300084903000820
:100090004903000849030008490300084903000810
:1000A0004903000849030008490300084903000800
:1000B00049030008490300084903000849030008F0
:1000C00049030008490300084903000849030008E0
:1000D00049030008490300084903000849030008D0
:1000E0004903000849030008490300080000000014
:1000F0000000000000000000000000000000000000
:100100000000000000000000490300084903000847
:10011000490300084903000849030008490300088F
:10012000490300084903000849030008490300087F
:10013000490300084903000849030008490300086F
:10014000490300084903000849030008490300085F
:10015000000000000000000000000000000000009F
:10016000000000000000000000000000000000008F
:10017000000000000000000000000000000000007F
:10018000000000000000000000000000000000006F
:10019000000000000000000000000000000000005F
:1001A000000000000000000000000000000000004F
:1001B000000000000000000000000000000000003F
:1001C000000000000000000000000000000000002F
:1001D000000000000000000000000000000000001F
:0401E0005FF8E0F1F3
:1001E40010B5054C237833B9044B13B10448AFF36D
:1001F40000800123237010BD0800002000000000CF
:10020400B803000808B5034B1BB103490348AFF317
:10021400008008BD000000000C000020B8030008A6
:1002240080B483B000AF1A4B1B68194A43F004032F
:100234001360184B1B68174A23F470031360154BA3
:100244001B68144A43F400131360134B1A68138891
:1002540043F40053138000237B6002E07B68013386
:100264007B607B6841F287329342F7D90A4B1A6864
:1002740013886FF34D33138000237B6002E07B68A7
:1002840001337B607B6841F287329342F7D9DCE724
:1002940018100240040801400000002080B400AFA0
:1002A40000BFBD4680BC704780B400AFFEE780B499
:1002B40000AFFEE780B400AFFEE780B400AFFEE716
:1002C40080B400AF00BFBD4680BC704780B400AFAF
:1002D40000BFBD4680BC704780B400AF00BFBD46C0
:1002E40080BC704780B500AF00F02EF800BF80BD21
:1002F40080B400AF00BFBD4680BC70470C480D49B8
:100304000D4A002302E0D458C4500433C4188C426C
:10031400F9D30A4A0A4C002301E013600432A242D2
:10032400FBD3FFF7E5FF00F021F8FFF779FF7047F3
:100334000000002008000020D80300080800002066
:1003440028000020FEE7000080B400AF054B1B78B6
:100354001A46054B1B681344034A136000BFBD468D
:1003640080BC7047040000202400002070B50025E4
:100374000C4E0D4CA41BA410A54209D100F01AF890
:1003840000250A4E0A4CA41BA410A54205D170BD39
:1003940056F8253098470135EEE756F8253098474A
:1003A4000135F2E7D0030008D0030008D0030008A9
:1003B400D4030008F8B500BFF8BC08BC9E467047DB
:0C03C400F8B500BFF8BC08BC9E467047AE
:0403D0000902000816
:0403D400E501000837
:0803D8000C08014001000000C7
:0400000508000301EB
:00000001FF
